:020000040000fa
:080000000001040000000000f3
:020000040000fa
:10020000ef2c21000079220000018800000000008e
:100210000a00070011000700000020000000e000b5
:10022000020032000000020000000000e2cf0200e5
:10023000000000000040da000000fe004440a90079
:10024000e00120000000e000030032000000200078
:10025000a00188004440a8000000060040ed2c00ea
:10026000010020001500370062004000e0804800d7
:10027000910188009001ba0062004000e0804800cf
:10028000910188009002ba0062004000e0804800be
:100290000002eb006028e10004003a000059eb0086
:1002a0008301e900fdff3e00040037006128e10002
:1002b000010032000082eb00050007009101880078
:1002c0001001ba000200e000e7ff3a00000005005c
:1002d000910188008002780062004000e0804800c0
:1002e0003559ba008301e900080032002559ba00e7
:1002f0008301e900050032000400e000f4ff320051
:1003000015d9ba008301e900f1ff3a0000000600a8
:10031000808f50000e00310082814000830f50001a
:100320000b003100020240008000eb0002003700a9
:10033000436278008100e800828f5000fcff3a00a1
:100340000000060061f079008301e8000100370039
:100350008001eb00828f5100faff3a000000060096
:10036000889fbe008a9fbe00010578000100e00062
:100370000400350008003c000000e00020003200ce
:100380000500370060001000e080180002003b000c
:1003900001f02c001a0037000004be006011b80004
:1003a0006b0920000982cf00020039000882cf00cb
:1003b0000441b000694252000e00320008003b00c8
:1003c00082817100610164008904d1000884d30036
:1003d0008b05e8000442e800f9ff3a000500370009
:1003e0000804440089844c008b05e9000442e900bc
:1003f000fbff3a00760107000af0a70001f0a00019
:100400004f05be004f04be0000000600889fbe00de
:100410008a9fbe008c1f7800930107009a01330069
:1004200003866c006450e100240032006420e10087
:10043000270032006150e100220032006120e1001b
:10044000210032008b854200eb07b1000134b80077
:10045000003ab8000804420089844a00013ab80012
:100460000030b8008880400009014a0004003300d1
:100470000000400081804800020149008b05e9002e
:10048000c909dd0083017000010032001300200063
:10049000c814de004814dd004709de001200b20077
:1004a000c808de00088470004901070001f0a100bf
:1004b0000cf0a70001f0a0007c0137006120e100f2
:1004c0007e0132000801be000200be00f7ff3700c7
:1004d0006150e100fcff3a00780137000001be00e6
:1004e000790107000470a70003f0a10003f8a3003e
:1004f00013003a006509b100100032000900350010
:100500006928e10002003500010028000000050014
:1005100000004000818048008502e900fcff3a00ad
:1005200000000600f88f4200050035008100d10070
:100530000080d3008502e800fcff3a0000000600be
:100540008000eb000000050003f0a200889fbe00c1
:100550008a9fbe008c1f7800430107004a013300c8
:100560006450e1004f0032006420e100520032008c
:1005700003826c0007003b000905d0000306d00091
:10058000820f54000c065d000200390002003200a8
:1005900089017800030678008582550004003d003b
:1005a0000003fd008103fd008502ea008b85420007
:1005b000840f720002003b0060001000e080180011
:1005c0006011b8000005eb007a28e1000a0039004c
:1005d00006007800c75ddd00f707b2008780750070
:1005e0002d003700828171000a01780061056000ea
:1005f0008180d1000080d3008502e900f9ff3b0033
:10060000060440008784480002003b006004140098
:10061000e0841c000988a300070032008a81710071
:1006200082817100610164008904d1000884d300d3
:100630008b05e800170037000978a30013003a0083
:100640000b00e000130034008b05e90008044400af
:1006500089844c000a4474000978a3000d003a0014
:100660000b00e000070034008b05e900080444009b
:1006700089844c0001003a000b0020000978a30097
:10068000f7ff32000001eb000200370082817100a9
:100690000a017800ce0007000cf0a70001f0a000ce
:1006a000020137006420e10002003a00838f6c00f1
:1006b000020133000801be000200be00fb0037004b
:1006c000889fbe008a9fbe008c1f7800e60007004e
:1006d000ed00330003866c006450e1002e00320010
:1006e0006420e100330032006150e1002f0032004d
:1006f0006120e1003100320085855500eb07b00034
:100700000900200008042000050037000804440008
:1007100089844c000a0031000603430087834b00a4
:100720000001530081815b00f8ff33000203be002b
:100730000800a0000804440089844c00f6ff39003a
:10074000c639dd0083017300010032001300200070
:100750008904d1000884d3000998a3000500320061
:100760000800a7000300a0008904d1000884d3007a
:100770008b05e8008904d1000884d3000001eb0058
:100780000281d2009200070001f0a1000cf0a70046
:1007900001f0a000c50037006420e100c70032006e
:1007a0000801be000200be00f7ff37006120e10033
:1007b000c20032006000b800f3ff370000002000e4
:1007c00001f82700f0ff3700889fbe008a9fbe0017
:1007d0008c1f78000004be00bb0007000478a30053
:1007e00026003a006120e1002500320009f8a3004c
:1007f00025003a006420e10021003200f507b10035
:100800000508a3000200320000004000818048007b
:100810006044b800031020000200200000004000e7
:10082000818048000805440089854c000a05410084
:100830008b8549000a0550008b8558000300330062
:100840000a00be0002047400838474008301d10096
:100850000281d300830f7100f0ff3a008904d100b8
:100860000884d3006001490082017800c1adde0038
:10087000fb07b000560007008c0037000960a0009d
:100880000800be008900370012022000628e880036
:10089000f0ff2f00f1ff2700840037000001be00a9
:1008a000890007000470a70003f0a1006509b100ea
:1008b000160032000d0035006828e1000600350002
:1008c000f0ff2f00f1ff27000300e00013003b00c2
:1008d0000100280000000500000040008180480061
:1008e0008502e900fcff3a0008003700f88f42005b
:1008f00002003c008000eb00000005008100d100f8
:100900000080d3008502e800fcff3a000300e0000d
:1009100002003b0060001000e080180000000600ac
:10092000889fbe008a9fbe008c1f78004e00070083
:100930001002200002003b00608e88005200370049
:100940008a0062006408e10002003a00608e8800bc
:100950005a0037006108e100fcff32000800be00c9
:100960000304780056ff070001f0a1006b000700a8
:1009700008f0a600040037000001be009104240026
:10098000b0fd2000f0fe070009f0a70001f0a20072
:1009900046003700839f68000100e00002003d0030
:1009a00060001000e08018000300e00002003d003d
:1009b00060011100e0811900bd0007004f00e00058
:1009c00002003b0060001000e080180000000600fc
:1009d00081002000618055000b003d000b002000cd
:1009e00061fe2f000100e1001d00340082817100d2
:1009f000610164008904d1000884d3000000e8008c
:100a0000faff3a00710020006100640003007000ea
:100a1000020060000900320061044400e0844c00e0
:100a20000988a500050032008b05e8006808e10090
:100a300002003a008904d1000884d300f20f20009c
:100a40000258e10005003d00c75ddd00f907b20076
:100a50008980750008007800000006000bf8270068
:100a60008b007800000005000004be00160007009f
:100a70000003be000405be000200be001200070015
:100a8000844f7500000006000200be006450e100c3
:100a9000050036006420e100020036000968a3006a
:100aa00001003a000800be000160a0004f06780077
:100ab0004f05be004f04be0000000600f0ff2f00ef
:100ac000f1ff2700f9ff3700c70ade00f107b20087
:100ad000f50fb20008003200e1cf42000200320000
:100ae0000170a00024000500810f70000100320099
:100af0000408050044000500810f700002003a0060
:100b0000140005008502e9000000400081c0480093
:100b1000fcff3b000170a00024000500889fbe0080
:100b20008a9fbe008c9fbe000004be00e6ff070047
:100b30000800be00890678006420e1000800390042
:100b4000040032000160a00012022000628e8800c2
:100b50005300370091fc2300b0fd20004e00370009
:100b60000006eb0009f0a10003f8230002002000ba
:100b70000800be005e0007000600340001f82300f4
:100b8000000020000801be00cdfe07000004be00ea
:100b90002c0020000800be0093e82300320a230046
:100ba00053000700120034000801be00d1fd2300ed
:100bb000703d2b0065fe07000005be00b3f3230067
:100bc000f27a26000800be0010fe070003f823009a
:100bd000020020005cfe07000801be005bfe07006b
:100be0000a01be00b6fe07000004be000c06e800c5
:100bf0000800be0001f0a1000200200003982300bd
:100c00003b0007000800be00160035000801be00ca
:100c1000fefd07000005be0032cd2c0043fb230083
:100c20004afe0700809fbe001269280003d52b00f2
:100c30000a00be00f5fd0700620f210013ef2b0034
:100c400042fe07000a01be00f0fd07004f01be0092
:100c50009bfe07000801be00ecfd07000801be0076
:100c60003afe07000c00e0000b0032000c10a70059
:100c700001f0a200b2fd200093fc23006260e100bd
:100c80000400320022a9200063f023000c10a7000a
:100c900063f823002dfe07000df0a70001f0a2006d
:100ca0004f06be004f05be004f04be000000060008
:100cb0006022b800060220000000d0008180d2002f
:100cc0000482d2008582d2000000a00002025200fd
:100cd00083825a00030031000202420083824a00ec
:100ce0000000a1000603e900f3ff3a00000006003f
:100cf0001400200000003700889fbe008a9fbe00bd
:100d0000841f780058ff07004f007800110033005f
:100d1000f0ff2f00838f6c0006003b000405650088
:100d20000a00a7000800370009f0a6001000200004
:100d300008003700820f5400838f5c0003003900e5
:100d40001000200001003e000000200009f0a70074
:100d50000000ea004f05be004f04be000000e000a6
:100d6000000006008460a900e7416000c419dd00ae
:100d70005109200091407800f2c8b30082c06000a1
:100d800083c070008000fd0095e0b7008000fd008a
:100d9000680060004300de004300dd00c108200061
:100da000914078000134a10080c0700001007800fb
:100db0008ce0b70000000600801c880000000600e0
:100dc000901c8800a11c8800000006009623ef00fc
:100dd0008760a900c01c8800e7c16000c419dd005d
:100de000a1c0bf00f2c8b300024060000340700021
:100df000a1e0b700e8806000c308de00c308dd00a2
:100e00008fc0bf000034a100014070008fe0b70028
:100e100000000600401ade00050020000004e0008b
:100e200006003200e14f500004003a00c11988006a
:100e3000d4198800e2198800000006008119880092
:100e400094198800a219880000000600401ade00ec
:100e50000500200004037800e24f50001300320028
:100e600005003c000004e00009003200e14f5000a2
:100e70001e003a0009003700e44f50001300320012
:100e80000e003500e54f500018003a0013003700ff
:100e900001188800141888001600370041188800cf
:100ea0005418880062188800000006008118880025
:100eb00094188800a218880000000600c118880055
:100ec000d4188800e2188800000006000119880084
:100ed00014198800221988000000060041198800b2
:100ee0005419880062198800000006000118880063
:100ef0001618880022188800000006000004e00090
:100f000004003200e14f500002003a00f11b88005b
:100f100000000600711c880000000600e14f500030
:100f200003003200e24f500003003200040037009b
:100f3000f11a880000000600711a880000000600ff
:100f4000711b880000000600e14f500007003200ce
:100f5000e24f5000070032008000eb000004e00088
:100f600009003a006ec3bf00030037005ec3bf0034
:100f7000010037004ec3bf000080fb004300de00cd
:100f80000000a200e10060000100780000000600ff
:100f9000401bde0007002000e1cf520003003200ba
:100fa000e2cf52000500320008003700801a8800a6
:100fb000961a8800a21a880007003700001a8800d5
:100fc000161a8800221a880003003700001b8800c8
:100fd000161b8800221b88000001eb000a00370066
:100fe00060352000e1cf520004003200603620005e
:100ff000e2cf520001003a00603420001171780005
:101000000201e8008100e8000480fb00800f51002d
:10101000f3ff3500e1cf52000d003200e2cf520065
:10102000160032006f4062004300dd0041362000b0
:101030009140780072c8b30082c0600080c0700028
:101040000100780064e3b7006e63a80000000600aa
:101050006f4062004300dd00413520009140780080
:1010600072c8b30082c0600080c0700001007800c8
:1010700054e3b7005e63a800000006006f40620002
:101080004300dd00413420009140780072c8b30075
:1010900082c0600080c070000100780044e3b700a7
:1010a0004e63a80000000600800178000002eb00fb
:1010b000090037000204e00003003200603720001e
:1010c000e14f51000100320060382000e44978000f
:1010d0000402e8008301e8000180fb00800f520059
:1010e000f4ff350000000600200e8800310e880055
:1010f000430e8800540e8800020e8800000006008f
:1011000061416100a31c2000934178000304a10009
:1011100082c171008001fd00cae1b7008001fd00bd
:1011200000004000421d2000013079000000060050
:1011300023e1a900f2ff22000201600012098800e9
:101140004b00de00614060004300dd0032122000f1
:10115000124178000234a1000041710002007800c1
:1011600023e1b70021098800000006003009800053
:101170000000060084c0a900e7416000710920005a
:101180009140780082cfb30082c0600083c07000bd
:101190008000fd0097e0b7008000fd00680060005f
:1011a0004300de004600dd00c108200091407800c9
:1011b0000164a10080c07000010078008ce0b700dd
:1011c0000000060084e0a900e7416000c419dd00ca
:1011d0007109200091407800f2c8b30082c060001d
:1011e00083c070008000fd0097e0b7008000fd0024
:1011f000680060004300de004700dd00c1082000f9
:10120000914078000174a10080c070000100780056
:101210008ce0b7000000060086c0a900e74160002e
:10122000f10920009140780082cfb30082c06000b5
:1012300083c070008000fd009fe0b7008000fd00cb
:10124000680060004300de004600dd00e108200089
:10125000914078000164a10080c070000100780016
:101260008ee0b700000006000008880000000600bd
:101270008c60a90005e1a9008460a90000000600b7
:101280000021ef00110888002008880000000600f7
:1012900030088800000006008cc0a90011e1a900f8
:1012a00084c0a900000006000621ef006108880044
:1012b000800888001061a90000000600500888001e
:1012c000000006008ce0a90013e1a90084e0a90059
:1012d000000006000a21ef007108880090088800cd
:1012e00000000600b1088800a00888000000060081
:1012f0008ec0a9001ec1bf000038a300010032004b
:101300001fe1a90086c0a900000006001421ef001b
:10131000d1088800f00888001e61a90000000600be
:10132000a21088006010880071108800000006007c
:101330008520a9008540a900e7416000c419dd00af
:101340008109200091407800f2c8b30082c060009b
:1013500083c070008000fd0098e0b7008000fd00b1
:10136000800178000307b200c419de009109200053
:101370009140780082cfb30082c0600083c07000cb
:101380008000fd0099e0b7008000fd00680160006a
:101390004311de0002414100d10820009140780055
:1013a0000114a10082c070008000fd008de0b70034
:1013b0008000fd000008b2004700de004200dd00b2
:1013c000d1082000914078000124a10080c0700065
:1013d000010078008de0b700000006000fc2bf00da
:1013e0000004a20061006000000006008000780098
:1013f0000cc2bf0066406000e64f500001003200a2
:10140000f10fb20081108800000006000cc2bf007e
:1014100066406000e64f500002003a0090108000e5
:101420000000060090108000f00fb20000000600df
:0c1430000ec2bf0061006000000006005a
:020000040000fa
:0200000401f009
:04000000e5ff000018
:020000040000fa
:0200000401f009
:04000400ff7f00007a
:020000040000fa
:0200000401f009
:040008007eff000077
:020000040000fa
:0200000401f009
:04001400ffff0000ea
:020000040000fa
:10000800eed200002cd000001ad0000008d000006a
:10001800f6cf0000eed20000eed20000eed20000d3
:10002800eed20000eed20000eed2000096cb000027
:10003800eed20000eed20000decb000028cd00009a
:10004800eed20000d6ca0000eed20000eed20000c8
:10005800eed20000eed20000eed20000eed2000098
:1000680066d00000eed20000eed20000eed2000012
:10007800eed20000eed20000eed2000098d00000d0
:10008800eed20000eed20000eed20000eebe00007c
:10009800eed20000eed20000eed20000eed2000058
:1000a800eed20000eed20000eed20000eed2000048
:1000b800eed20000eed20000eed20000eed2000038
:1000c800eed20000eed20000eed20000eed2000028
:1000d800eed20000eed20000eed20000eed2000018
:1000e800eed20000eed20000eed20000eed2000008
:0800f800eed20000eed2000080
:020000040000fa
:10010800eed200002cd000001ad0000008d0000069
:10011800f6cf0000eed20000eed20000eed20000d2
:10012800eed20000eed20000eed2000096cb000026
:10013800eed20000eed20000decb000028cd000099
:10014800eed20000d6ca0000eed20000eed20000c7
:10015800eed20000eed20000eed20000eed2000097
:1001680066d00000eed20000eed20000eed2000011
:10017800eed20000eed20000eed2000098d00000cf
:10018800eed20000eed20000eed20000eebe00007b
:10019800eed20000eed20000eed20000eed2000057
:1001a800eed20000eed20000eed20000eed2000047
:1001b800eed20000eed20000eed20000eed2000037
:1001c800eed20000eed20000eed20000eed2000027
:1001d800eed20000eed20000eed20000eed2000017
:1001e800eed20000eed20000eed20000eed2000007
:0801f800eed20000eed200007f
:020000040000fa
:10143c00412d0000402d00003f2d00003e2d0000ee
:10144c003e2d00003d2d00003c2d00003c2d0000e9
:10145c003b2d00003a2d0000392d0000392d0000e5
:10146c00382d0000372d0000372d0000362d0000e0
:10147c00352d0000342d0000342d0000332d0000dc
:10148c00322d0000322d0000312d0000302d0000d7
:10149c00302d00002f2d00002e2d00002d2d0000d2
:1014ac002d2d00002c2d00002b2d00002b2d0000cd
:1014bc002a2d0000292d0000282d0000282d0000c9
:1014cc00272d0000262d0000262d0000252d0000c4
:1014dc00242d0000232d0000232d0000222d0000c0
:1014ec00212d0000212d0000202d00001f2d0000bb
:1014fc001f2d00001e2d00001d2d00001c2d0000b6
:10150c001c2d00001b2d00001a2d00001a2d0000b0
:10151c00192d0000182d0000172d0000172d0000ac
:10152c00162d0000152d0000152d0000142d0000a7
:10153c00132d0000122d0000122d0000112d0000a3
:10154c00102d0000102d00000f2d00000e2d00009e
:10155c000d2d00000d2d00000c2d00000b2d00009a
:10156c000b2d00000a2d0000092d0000092d000094
:10157c00082d0000072d0000062d0000062d000090
:10158c00052d0000042d0000042d0000032d00008b
:10159c00022d0000012d0000012d0000002d000087
:1015ac00ff2c0000ff2c0000fe2c0000fd2c000086
:1015bc00fc2c0000fc2c0000fb2c0000fa2c000082
:1015cc00fa2c0000f92c0000f82c0000f72c00007d
:1015dc00f72c0000f62c0000f52c0000f52c000078
:1015ec00f42c0000f32c0000f22c0000f22c000074
:1015fc00f12c0000f02c0000f02c0000ef2c00006f
:10160c00ee2c0000ed2c0000ed2c0000ec2c00006a
:10161c00eb2c0000eb2c0000ea2c0000e92c000065
:10162c00e82c0000e82c0000e72c0000e62c000061
:10163c00e62c0000e52c0000e42c0000e32c00005c
:10164c00e32c0000e22c0000e12c0000e12c000057
:10165c00e02c0000df2c0000df2c0000de2c000052
:10166c00dd2c0000dc2c0000dc2c0000db2c00004e
:10167c00da2c0000da2c0000d92c0000d82c000049
:10168c00d72c0000d72c0000d62c0000d52c000045
:10169c00d52c0000d42c0000d32c0000d22c000040
:1016ac00d22c0000d12c0000d02c0000d02c00003b
:1016bc00cf2c0000ce2c0000cd2c0000cd2c000037
:1016cc00cc2c0000cb2c0000cb2c0000ca2c000032
:1016dc00c92c0000c82c0000c82c0000c72c00002e
:1016ec00c62c0000c62c0000c52c0000c42c000029
:1016fc00c32c0000c32c0000c22c0000c12c000025
:10170c00c12c0000c02c0000bf2c0000be2c00001f
:10171c00be2c0000bd2c0000bc2c0000bc2c00001a
:10172c00bb2c0000ba2c0000b92c0000b92c000016
:10173c00b82c0000b72c0000b72c0000b62c000011
:10174c00b52c0000b42c0000b42c0000b32c00000d
:10175c00b22c0000b12c0000b12c0000b02c000009
:10176c00af2c0000af2c0000ae2c0000ad2c000004
:10177c00ac2c0000ac2c0000ab2c0000aa2c000000
:10178c00aa2c0000a92c0000a82c0000a72c0000fb
:10179c00a72c0000a62c0000a52c0000a52c0000f6
:1017ac00a42c0000a32c0000a22c0000a22c0000f2
:1017bc00a12c0000a02c0000a02c00009f2c0000ed
:1017cc009e2c00009d2c00009d2c00009c2c0000e9
:1017dc009b2c00009b2c00009a2c0000992c0000e4
:1017ec00982c0000982c0000972c0000962c0000e0
:1017fc00962c0000952c0000942c0000932c0000db
:10180c00932c0000922c0000912c0000912c0000d5
:10181c00902c00008f2c00008e2c00008e2c0000d1
:10182c008d2c00008c2c00008c2c00008b2c0000cc
:10183c008a2c0000892c0000892c0000882c0000c8
:10184c00872c0000862c0000862c0000852c0000c4
:10185c00842c0000842c0000832c0000822c0000bf
:10186c00812c0000812c0000802c00007f2c0000bb
:10187c007f2c00007e2c00007d2c00007c2c0000b6
:10188c007c2c00007b2c00007a2c00007a2c0000b1
:10189c00792c0000782c0000772c0000772c0000ad
:1018ac00762c0000752c0000752c0000742c0000a8
:1018bc00732c0000722c0000722c0000712c0000a4
:1018cc00702c00006f2c00006f2c00006e2c0000a0
:1018dc006d2c00006d2c00006c2c00006b2c00009b
:1018ec006a2c00006a2c0000692c0000682c000097
:1018fc00682c0000672c0000662c0000652c000092
:10190c00652c0000642c0000632c0000632c00008c
:10191c00622c0000612c0000602c0000602c000088
:10192c005f2c00005e2c00005d2c00005d2c000084
:10193c005c2c00005b2c00005b2c00005a2c00007f
:10194c00592c0000582c0000582c0000572c00007b
:10195c00562c0000562c0000552c0000542c000076
:10196c00532c0000532c0000522c0000512c000072
:10197c00502c0000502c00004f2c00004e2c00006e
:10198c004e2c00004d2c00004c2c00004b2c000069
:10199c004b2c00004a2c0000492c0000492c000064
:1019ac00482c0000472c0000462c0000462c000060
:1019bc00452c0000442c0000432c0000432c00005c
:1019cc00422c0000412c0000412c0000402c000057
:1019dc003f2c00003e2c00003e2c00003d2c000053
:1019ec003c2c00003c2c00003b2c00003a2c00004e
:1019fc00392c0000392c0000382c0000372c00004a
:101a0c00362c0000362c0000352c0000342c000045
:101a1c00342c0000332c0000322c0000312c000040
:101a2c00312c0000302c00002f2c00002f2c00003b
:101a3c002e2c00002d2c00002c2c00002c2c000037
:101a4c002b2c00002a2c0000292c0000292c000033
:101a5c00282c0000272c0000272c0000262c00002e
:101a6c00252c0000242c0000242c0000232c00002a
:101a7c00222c0000212c0000212c0000202c000026
:101a8c001f2c00001f2c00001e2c00001d2c000021
:101a9c001c2c00001c2c00001b2c00001a2c00001d
:101aac001a2c0000192c0000182c0000172c000018
:101abc00172c0000162c0000152c0000142c000014
:101acc00142c0000132c0000122c0000122c00000f
:101adc00112c0000102c00000f2c00000f2c00000b
:101aec000e2c00000d2c00000c2c00000c2c000007
:101afc000b2c00000a2c00000a2c0000092c000002
:101b0c00082c0000072c0000072c0000062c0000fd
:101b1c00052c0000042c0000042c0000032c0000f9
:101b2c00022c0000022c0000012c0000002c0000f4
:101b3c00ff2b0000ff2b0000fe2b0000fd2b0000f4
:101b4c00fd2b0000fc2b0000fb2b0000fa2b0000ef
:101b5c00fa2b0000f92b0000f82b0000f72b0000eb
:101b6c00f72b0000f62b0000f52b0000f52b0000e6
:101b7c00f42b0000f32b0000f22b0000f22b0000e2
:101b8c00f12b0000f02b0000ef2b0000ef2b0000de
:101b9c00ee2b0000ed2b0000ed2b0000ec2b0000d9
:101bac00eb2b0000ea2b0000ea2b0000e92b0000d5
:101bbc00e82b0000e72b0000e72b0000e62b0000d1
:101bcc00e52b0000e52b0000e42b0000e32b0000cc
:101bdc00e22b0000e22b0000e12b0000e02b0000c8
:101bec00df2b0000df2b0000de2b0000dd2b0000c4
:101bfc00dd2b0000dc2b0000db2b0000da2b0000bf
:101c0c00da2b0000d92b0000d82b0000d72b0000ba
:101c1c00d72b0000d62b0000d52b0000d42b0000b6
:101c2c00d42b0000d32b0000d22b0000d22b0000b1
:101c3c00d12b0000d02b0000cf2b0000cf2b0000ad
:101c4c00ce2b0000cd2b0000cc2b0000cc2b0000a9
:101c5c00cb2b0000ca2b0000ca2b0000c92b0000a4
:101c6c00c82b0000c72b0000c72b0000c62b0000a0
:101c7c00c52b0000c42b0000c42b0000c32b00009c
:101c8c00c22b0000c22b0000c12b0000c02b000097
:101c9c00bf2b0000bf2b0000be2b0000bd2b000093
:101cac00bc2b0000bc2b0000bb2b0000ba2b00008f
:101cbc00b92b0000b92b0000b82b0000b72b00008b
:101ccc00b72b0000b62b0000b52b0000b42b000086
:101cdc00b42b0000b32b0000b22b0000b12b000082
:101cec00b12b0000b02b0000af2b0000af2b00007d
:101cfc00ae2b0000ad2b0000ac2b0000ac2b000079
:101d0c00ab2b0000aa2b0000a92b0000a92b000074
:101d1c00a82b0000a72b0000a62b0000a62b000070
:101d2c00a52b0000a42b0000a42b0000a32b00006b
:101d3c00a22b0000a12b0000a12b0000a02b000067
:101d4c009f2b00009e2b00009e2b00009d2b000063
:101d5c009c2b00009c2b00009b2b00009a2b00005e
:101d6c00992b0000992b0000982b0000972b00005a
:101d7c00962b0000962b0000952b0000942b000056
:101d8c00932b0000932b0000922b0000912b000052
:101d9c00912b0000902b00008f2b00008e2b00004d
:101dac008e2b00008d2b00008c2b00008b2b000049
:101dbc008b2b00008a2b0000892b0000882b000045
:101dcc00882b0000872b0000862b0000862b000040
:101ddc00852b0000842b0000832b0000832b00003c
:101dec00822b0000812b0000802b0000802b000038
:101dfc007f2b00007e2b00007d2b00007d2b000034
:101e0c007c2b00007b2b00007b2b00007a2b00002e
:101e1c00792b0000782b0000782b0000772b00002a
:101e2c00762b0000752b0000752b0000742b000026
:101e3c00732b0000722b0000722b0000712b000022
:101e4c00702b0000702b00006f2b00006e2b00001d
:101e5c006d2b00006d2b00006c2b00006b2b000019
:101e6c006a2b00006a2b0000692b0000682b000015
:101e7c00672b0000672b0000662b0000652b000011
:101e8c00652b0000642b0000632b0000622b00000c
:101e9c00622b0000612b0000602b00005f2b000008
:101eac005f2b00005e2b00005d2b00005c2b000004
:101ebc005c2b00005b2b00005a2b0000592b000000
:101ecc00592b0000582b0000572b0000572b0000fb
:101edc00562b0000552b0000542b0000542b0000f7
:101eec00532b0000522b0000512b0000512b0000f3
:101efc00502b00004f2b00004e2b00004e2b0000ef
:101f0c004d2b00004c2b00004b2b00004b2b0000ea
:101f1c004a2b0000492b0000492b0000482b0000e5
:101f2c00472b0000462b0000462b0000452b0000e1
:101f3c00442b0000432b0000432b0000422b0000dd
:101f4c00412b0000402b0000402b00003f2b0000d9
:101f5c003e2b00003d2b00003d2b00003c2b0000d5
:101f6c003b2b00003b2b00003a2b0000392b0000d0
:101f7c00382b0000382b0000372b0000362b0000cc
:101f8c00352b0000352b0000342b0000332b0000c8
:101f9c00322b0000322b0000312b0000302b0000c4
:101fac002f2b00002f2b00002e2b00002d2b0000c0
:101fbc002d2b00002c2b00002b2b00002a2b0000bb
:101fcc002a2b0000292b0000282b0000272b0000b7
:101fdc00272b0000262b0000252b0000242b0000b3
:101fec00242b0000232b0000222b0000212b0000af
:101ffc00212b0000202b00001f2b00001e2b0000ab
:10200c001e2b00001d2b00001c2b00001c2b0000a5
:10201c001b2b00001a2b0000192b0000192b0000a1
:10202c00182b0000172b0000162b0000162b00009d
:10203c00152b0000142b0000132b0000132b000099
:10204c00122b0000112b0000102b0000102b000095
:10205c000f2b00000e2b00000d2b00000d2b000091
:10206c000c2b00000b2b00000b2b00000a2b00008c
:10207c00092b0000082b0000082b0000072b000088
:10208c00062b0000052b0000052b0000042b000084
:10209c00032b0000022b0000022b0000012b000080
:1020ac00002b0000ff2a0000ff2a0000fe2a00007f
:1020bc00fd2a0000fc2a0000fc2a0000fb2a00007c
:1020cc00fa2a0000f92a0000f92a0000f82a000078
:1020dc00f72a0000f72a0000f62a0000f52a000073
:1020ec00f42a0000f42a0000f32a0000f22a00006f
:1020fc00f12a0000f12a0000f02a0000ef2a00006b
:10210c00ee2a0000ee2a0000ed2a0000ec2a000066
:10211c00eb2a0000eb2a0000ea2a0000e92a000062
:10212c00e82a0000e82a0000e72a0000e62a00005e
:10213c00e52a0000e52a0000e42a0000e32a00005a
:10214c00e32a0000e22a0000e12a0000e02a000055
:10215c00e02a0000df2a0000de2a0000dd2a000051
:10216c00dd2a0000dc2a0000db2a0000da2a00004d
:10217c00da2a0000d92a0000d82a0000d72a000049
:10218c00d72a0000d62a0000d52a0000d42a000045
:10219c00d42a0000d32a0000d22a0000d12a000041
:1021ac00d12a0000d02a0000cf2a0000ce2a00003d
:1021bc00ce2a0000cd2a0000cc2a0000cb2a000039
:1021cc00cb2a0000ca2a0000c92a0000c82a000035
:1021dc00c82a0000c72a0000c62a0000c62a000030
:1021ec00c52a0000c42a0000c32a0000c32a00002c
:1021fc00c22a0000c12a0000c02a0000c02a000028
:10220c00bf2a0000be2a0000bd2a0000bd2a000023
:10221c00bc2a0000bb2a0000ba2a0000ba2a00001f
:10222c00b92a0000b82a0000b72a0000b72a00001b
:10223c00b62a0000b52a0000b42a0000b42a000017
:10224c00b32a0000b22a0000b12a0000b12a000013
:10225c00b02a0000af2a0000ae2a0000ae2a00000f
:10226c00ad2a0000ac2a0000ab2a0000ab2a00000b
:10227c00aa2a0000a92a0000a82a0000a82a000007
:10228c00a72a0000a62a0000a52a0000a52a000003
:10229c00a42a0000a32a0000a32a0000a22a0000fe
:1022ac00a12a0000a02a0000a02a00009f2a0000fa
:1022bc009e2a00009d2a00009d2a00009c2a0000f6
:1022cc009b2a00009a2a00009a2a0000992a0000f2
:1022dc00982a0000972a0000972a0000962a0000ee
:1022ec00952a0000942a0000942a0000932a0000ea
:1022fc00922a0000912a0000912a0000902a0000e6
:10230c008f2a00008e2a00008e2a00008d2a0000e1
:10231c008c2a00008b2a00008b2a00008a2a0000dd
:10232c00892a0000882a0000882a0000872a0000d9
:10233c00862a0000852a0000852a0000842a0000d5
:10234c00832a0000822a0000822a0000812a0000d1
:10235c00802a00007f2a00007f2a00007e2a0000cd
:10236c007d2a00007c2a00007c2a00007b2a0000c9
:10237c007a2a0000792a0000792a0000782a0000c5
:10238c00772a0000762a0000762a0000752a0000c1
:10239c00742a0000732a0000732a0000722a0000bd
:1023ac00712a0000702a0000702a00006f2a0000b9
:1023bc006e2a00006d2a00006d2a00006c2a0000b5
:1023cc006b2a00006a2a00006a2a0000692a0000b1
:1023dc00682a0000672a0000672a0000662a0000ad
:1023ec00652a0000642a0000642a0000632a0000a9
:1023fc00622a0000612a0000612a0000602a0000a5
:10240c005f2a00005e2a00005e2a00005d2a0000a0
:10241c005c2a00005b2a00005b2a00005a2a00009c
:10242c00592a0000582a0000582a0000572a000098
:10243c00562a0000552a0000552a0000542a000094
:10244c00532a0000522a0000522a0000512a000090
:10245c00502a00004f2a00004f2a00004e2a00008c
:10246c004d2a00004c2a00004c2a00004b2a000088
:10247c004a2a0000492a0000492a0000482a000084
:10248c00472a0000462a0000462a0000452a000080
:10249c00442a0000432a0000432a0000422a00007c
:1024ac00412a0000402a0000402a00003f2a000078
:1024bc003e2a00003d2a00003d2a00003c2a000074
:1024cc003b2a00003a2a00003a2a0000392a000070
:1024dc00382a0000372a0000372a0000362a00006c
:1024ec00352a0000342a0000342a0000332a000068
:1024fc00322a0000312a0000312a0000302a000064
:10250c002f2a00002e2a00002e2a00002d2a00005f
:10251c002c2a00002b2a00002b2a00002a2a00005b
:10252c00292a0000282a0000282a0000272a000057
:10253c00262a0000252a0000252a0000242a000053
:10254c00232a0000222a0000222a0000212a00004f
:10255c00202a00001f2a00001f2a00001e2a00004b
:10256c001d2a00001c2a00001c2a00001b2a000047
:10257c001a2a0000192a0000192a0000182a000043
:10258c00172a0000162a0000162a0000152a00003f
:10259c00142a0000132a0000132a0000122a00003b
:1025ac00112a0000102a0000102a00000f2a000037
:1025bc000e2a00000d2a00000d2a00000c2a000033
:1025cc000b2a00000a2a00000a2a0000092a00002f
:1025dc00082a0000072a0000072a0000062a00002b
:1025ec00052a0000042a0000032a0000032a000028
:1025fc00022a0000012a0000002a0000002a000024
:10260c00ff290000fe290000fd290000fd29000023
:10261c00fc290000fb290000fa290000fa2900001f
:10262c00f9290000f8290000f7290000f72900001b
:10263c00f6290000f5290000f4290000f429000017
:10264c00f3290000f2290000f1290000f129000013
:10265c00f0290000ef290000ee290000ee2900000f
:10266c00ed290000ec290000eb290000eb2900000b
:10267c00ea290000e9290000e8290000e829000007
:10268c00e7290000e6290000e5290000e529000003
:10269c00e4290000e3290000e2290000e2290000ff
:1026ac00e1290000e0290000df290000de290000fc
:1026bc00de290000dd290000dc290000db290000f8
:1026cc00db290000da290000d9290000d8290000f4
:1026dc00d8290000d7290000d6290000d5290000f0
:1026ec00d5290000d4290000d3290000d2290000ec
:1026fc00d2290000d1290000d0290000cf290000e8
:10270c00cf290000ce290000cd290000cc290000e3
:10271c00cc290000cb290000ca290000c9290000df
:10272c00c9290000c8290000c7290000c6290000db
:10273c00c6290000c5290000c4290000c3290000d7
:10274c00c2290000c2290000c1290000c0290000d4
:10275c00bf290000bf290000be290000bd290000d0
:10276c00bc290000bc290000bb290000ba290000cc
:10277c00b9290000b9290000b8290000b7290000c8
:10278c00b6290000b6290000b5290000b4290000c4
:10279c00b3290000b3290000b2290000b1290000c0
:1027ac00b0290000b0290000af290000ae290000bc
:1027bc00ad290000ac290000ac290000ab290000b9
:1027cc00aa290000a9290000a9290000a8290000b5
:1027dc00a7290000a6290000a6290000a5290000b1
:1027ec00a4290000a3290000a3290000a2290000ad
:1027fc00a1290000a0290000a02900009f290000a9
:10280c009e2900009d2900009d2900009c290000a4
:10281c009b2900009a2900009929000099290000a1
:10282c00982900009729000096290000962900009d
:10283c009529000094290000932900009329000099
:10284c009229000091290000902900009029000095
:10285c008f2900008e2900008d2900008d29000091
:10286c008c2900008b2900008a2900008a2900008d
:10287c00892900008829000087290000862900008a
:10288c008629000085290000842900008329000086
:10289c008329000082290000812900008029000082
:1028ac00802900007f2900007e2900007d2900007e
:1028bc007d2900007c2900007b2900007a2900007a
:1028cc007a29000079290000782900007729000076
:1028dc007629000076290000752900007429000073
:1028ec00732900007329000072290000712900006f
:1028fc0070290000702900006f2900006e2900006b
:10290c006d2900006d2900006c2900006b29000066
:10291c006a2900006a290000692900006829000062
:10292c00672900006629000066290000652900005f
:10293c00642900006329000063290000622900005b
:10294c006129000060290000602900005f29000057
:10295c005e2900005d2900005d2900005c29000053
:10296c005b2900005a2900005a290000592900004f
:10297c00582900005729000056290000562900004c
:10298c005529000054290000532900005329000048
:10299c005229000051290000502900005029000044
:1029ac004f2900004e2900004d2900004d29000040
:1029bc004c2900004b2900004a290000492900003d
:1029cc004929000048290000472900004629000039
:1029dc004629000045290000442900004329000035
:1029ec004329000042290000412900004029000031
:1029fc00402900003f2900003e2900003d2900002d
:102a0c003c2900003c2900003b2900003a29000029
:102a1c003929000039290000382900003729000025
:102a2c003629000036290000352900003429000021
:102a3c00332900003329000032290000312900001d
:102a4c00302900002f2900002f2900002e2900001a
:102a5c002d2900002c2900002c2900002b29000016
:102a6c002a29000029290000292900002829000012
:102a7c00272900002629000026290000252900000e
:102a8c00242900002329000022290000222900000b
:102a9c0021290000202900001f2900001f29000007
:102aac001e2900001d2900001c2900001c29000003
:102abc001b2900001a2900001929000019290000ff
:102acc0018290000172900001629000015290000fc
:102adc0015290000142900001329000012290000f8
:102aec001229000011290000102900000f290000f4
:102afc000f2900000e2900000d2900000c290000f0
:102b0c000b2900000b2900000a29000009290000ec
:102b1c0008290000082900000729000006290000e8
:102b2c0005290000052900000429000003290000e4
:102b3c0002290000012900000129000000290000e1
:102b4c00ff280000fe280000fe280000fd280000e1
:102b5c00fc280000fb280000fb280000fa280000dd
:102b6c00f9280000f8280000f8280000f7280000d9
:102b7c00f6280000f5280000f4280000f4280000d6
:102b8c00f3280000f2280000f1280000f1280000d2
:102b9c00f0280000ef280000ee280000ee280000ce
:102bac00ed280000ec280000eb280000ea280000cb
:102bbc00ea280000e9280000e8280000e7280000c7
:102bcc00e7280000e6280000e5280000e4280000c3
:102bdc00e4280000e3280000e2280000e1280000bf
:102bec00e0280000e0280000df280000de280000bc
:102bfc00dd280000dd280000dc280000db280000b8
:102c0c00da280000da280000d9280000d8280000b3
:102c1c00d7280000d6280000d6280000d5280000b0
:102c2c00d4280000d3280000d3280000d2280000ac
:102c3c00d1280000d0280000cf280000cf280000a9
:102c4c00ce280000cd280000cc280000cc280000a5
:102c5c00cb280000ca280000c9280000c9280000a1
:102c6c00c8280000c7280000c6280000c52800009e
:102c7c00c5280000c4280000c3280000c22800009a
:102c8c00c2280000c1280000c0280000bf28000096
:102c9c00bf280000be280000bd280000bc28000092
:102cac00bb280000bb280000ba280000b92800008f
:102cbc00b8280000b8280000b7280000b62800008b
:102ccc00b5280000b5280000b4280000b328000087
:102cdc00b2280000b1280000b1280000b028000084
:102cec00af280000ae280000ae280000ad28000080
:102cfc00ac280000ab280000aa280000aa2800007d
:102d0c00a9280000a8280000a7280000a728000078
:102d1c00a6280000a5280000a4280000a428000074
:102d2c00a3280000a2280000a1280000a028000071
:102d3c00a02800009f2800009e2800009d2800006d
:102d4c009d2800009c2800009b2800009a28000069
:102d5c009928000099280000982800009728000066
:102d6c009628000096280000952800009428000062
:102d7c00932800009328000092280000912800005e
:102d8c00902800008f2800008f2800008e2800005b
:102d9c008d2800008c2800008c2800008b28000057
:102dac008a28000089280000882800008828000054
:102dbc008728000086280000852800008528000050
:102dcc00842800008328000082280000812800004d
:102ddc0081280000802800007f2800007e28000049
:102dec007e2800007d2800007c2800007b28000045
:102dfc007b2800007a280000792800007828000041
:102e0c00772800007728000076280000752800003d
:102e1c007428000074280000732800007228000039
:102e2c007128000070280000702800006f28000036
:102e3c006e2800006d2800006d2800006c28000032
:102e4c006b2800006a28000069280000692800002f
:102e5c00682800006728000066280000662800002b
:102e6c006528000064280000632800006228000028
:102e7c006228000061280000602800005f28000024
:102e8c005f2800005e2800005d2800005c28000020
:102e9c005c2800005b2800005a280000592800001c
:102eac005828000058280000572800005628000019
:102ebc005528000055280000542800005328000015
:102ecc005228000051280000512800005028000012
:102edc004f2800004e2800004e2800004d2800000e
:102eec004c2800004b2800004a2800004a2800000b
:102efc004928000048280000472800004728000007
:102f0c004628000045280000442800004328000003
:102f1c0043280000422800004128000040280000ff
:102f2c00402800003f2800003e2800003d280000fb
:102f3c003c2800003c2800003b2800003a280000f8
:102f4c0039280000392800003828000037280000f4
:102f5c0036280000352800003528000034280000f1
:102f6c0033280000322800003228000031280000ed
:102f7c00302800002f2800002e2800002e280000ea
:102f8c002d2800002c2800002b2800002b280000e6
:102f9c002a280000292800002828000027280000e3
:102fac0027280000262800002528000024280000df
:102fbc0024280000232800002228000021280000db
:102fcc0020280000202800001f2800001e280000d8
:102fdc001d2800001d2800001c2800001b280000d4
:102fec001a280000192800001928000018280000d1
:102ffc0017280000162800001628000015280000cd
:10300c0014280000132800001228000012280000c9
:10301c0011280000102800000f2800000e280000c6
:10302c000e2800000d2800000c2800000b280000c2
:10303c000b2800000a2800000928000008280000be
:10304c0007280000072800000628000005280000bb
:10305c0004280000042800000328000002280000b7
:10306c00012800000028000000280000ff270000b5
:10307c00fe270000fd270000fd270000fc270000b4
:10308c00fb270000fa270000f9270000f9270000b1
:10309c00f8270000f7270000f6270000f6270000ad
:1030ac00f5270000f4270000f3270000f2270000aa
:1030bc00f2270000f1270000f0270000ef270000a6
:1030cc00ee270000ee270000ed270000ec270000a3
:1030dc00eb270000eb270000ea270000e92700009f
:1030ec00e8270000e7270000e7270000e62700009c
:1030fc00e5270000e4270000e4270000e327000098
:10310c00e2270000e1270000e0270000e027000094
:10311c00df270000de270000dd270000dc27000091
:10312c00dc270000db270000da270000d92700008d
:10313c00d9270000d8270000d7270000d627000089
:10314c00d5270000d5270000d4270000d327000086
:10315c00d2270000d2270000d1270000d027000082
:10316c00cf270000ce270000ce270000cd2700007f
:10317c00cc270000cb270000ca270000ca2700007c
:10318c00c9270000c8270000c7270000c727000078
:10319c00c6270000c5270000c4270000c327000075
:1031ac00c3270000c2270000c1270000c027000071
:1031bc00c0270000bf270000be270000bd2700006d
:1031cc00bc270000bc270000bb270000ba2700006a
:1031dc00b9270000b8270000b8270000b727000067
:1031ec00b6270000b5270000b5270000b427000063
:1031fc00b3270000b2270000b1270000b127000060
:10320c00b0270000af270000ae270000ad2700005c
:10321c00ad270000ac270000ab270000aa27000058
:10322c00aa270000a9270000a8270000a727000054
:10323c00a6270000a6270000a5270000a427000051
:10324c00a3270000a3270000a2270000a12700004d
:10325c00a02700009f2700009f2700009e2700004a
:10326c009d2700009c2700009b2700009b27000047
:10327c009a27000099270000982700009827000043
:10328c009727000096270000952700009427000040
:10329c00942700009327000092270000912700003c
:1032ac0090270000902700008f2700008e27000039
:1032bc008d2700008d2700008c2700008b27000035
:1032cc008a27000089270000892700008827000032
:1032dc00872700008627000085270000852700002f
:1032ec00842700008327000082270000812700002c
:1032fc0081270000802700007f2700007e27000028
:10330c007e2700007d2700007c2700007b27000023
:10331c007a2700007a270000792700007827000020
:10332c00772700007627000076270000752700001d
:10333c007427000073270000732700007227000019
:10334c0071270000702700006f2700006f27000016
:10335c006e2700006d2700006c2700006b27000013
:10336c006b2700006a27000069270000682700000f
:10337c00682700006727000066270000652700000b
:10338c006427000064270000632700006227000008
:10339c006127000060270000602700005f27000005
:1033ac005e2700005d2700005c2700005c27000002
:1033bc005b2700005a2700005927000059270000fe
:1033cc0058270000572700005627000055270000fb
:1033dc0055270000542700005327000052270000f7
:1033ec005127000051270000502700004f270000f4
:1033fc004e2700004d2700004d2700004c270000f1
:10340c004b2700004a2700004a27000049270000ec
:10341c0048270000472700004627000046270000e9
:10342c0045270000442700004327000042270000e6
:10343c004227000041270000402700003f270000e2
:10344c003e2700003e2700003d2700003c270000df
:10345c003b2700003b2700003a27000039270000db
:10346c0038270000372700003727000036270000d8
:10347c0035270000342700003327000033270000d5
:10348c003227000031270000302700002f270000d2
:10349c002f2700002e2700002d2700002c270000ce
:1034ac002c2700002b2700002a27000029270000ca
:1034bc0028270000282700002727000026270000c7
:1034cc0025270000242700002427000023270000c4
:1034dc0022270000212700002027000020270000c1
:1034ec001f2700001e2700001d2700001c270000be
:1034fc001c2700001b2700001a27000019270000ba
:10350c0019270000182700001727000016270000b5
:10351c0015270000152700001427000013270000b2
:10352c0012270000112700001127000010270000af
:10353c000f2700000e2700000d2700000d270000ac
:10354c000c2700000b2700000a27000009270000a9
:10355c0009270000082700000727000006270000a5
:10356c0006270000052700000427000003270000a1
:10357c00022700000227000001270000002700009e
:10358c00ff260000fe260000fe260000fd2600009f
:10359c00fc260000fb260000fa260000fa2600009c
:1035ac00f9260000f8260000f7260000f626000099
:1035bc00f6260000f5260000f4260000f326000095
:1035cc00f2260000f2260000f1260000f026000092
:1035dc00ef260000ef260000ee260000ed2600008e
:1035ec00ec260000eb260000eb260000ea2600008b
:1035fc00e9260000e8260000e7260000e726000088
:10360c00e6260000e5260000e4260000e326000084
:10361c00e3260000e2260000e1260000e026000080
:10362c00df260000df260000de260000dd2600007d
:10363c00dc260000db260000db260000da2600007a
:10364c00d9260000d8260000d7260000d726000077
:10365c00d6260000d5260000d4260000d326000074
:10366c00d3260000d2260000d1260000d026000070
:10367c00d0260000cf260000ce260000cd2600006c
:10368c00cc260000cc260000cb260000ca26000069
:10369c00c9260000c8260000c8260000c726000066
:1036ac00c6260000c5260000c4260000c426000063
:1036bc00c3260000c2260000c1260000c026000060
:1036cc00c0260000bf260000be260000bd2600005c
:1036dc00bc260000bc260000bb260000ba26000059
:1036ec00b9260000b8260000b8260000b726000056
:1036fc00b6260000b5260000b4260000b426000053
:10370c00b3260000b2260000b1260000b02600004f
:10371c00b0260000af260000ae260000ad2600004b
:10372c00ad260000ac260000ab260000aa26000047
:10373c00a9260000a9260000a8260000a726000044
:10374c00a6260000a5260000a5260000a426000041
:10375c00a3260000a2260000a1260000a12600003e
:10376c00a02600009f2600009e2600009d2600003b
:10377c009d2600009c2600009b2600009a26000037
:10378c009926000099260000982600009726000034
:10379c009626000095260000952600009426000031
:1037ac00932600009226000091260000912600002e
:1037bc00902600008f2600008e2600008d2600002b
:1037cc008d2600008c2600008b2600008a26000027
:1037dc008926000089260000882600008726000024
:1037ec008626000085260000852600008426000021
:1037fc00832600008226000081260000812600001e
:10380c00802600007f2600007e2600007d2600001a
:10381c007d2600007c2600007b2600007a26000016
:10382c007926000079260000782600007726000013
:10383c007626000075260000752600007426000010
:10384c00732600007226000071260000712600000d
:10385c00702600006f2600006e2600006d2600000a
:10386c006d2600006c2600006b2600006a26000006
:10387c006926000069260000682600006726000003
:10388c006626000065260000652600006426000000
:10389c0063260000622600006126000061260000fd
:1038ac00602600005f2600005e2600005d260000fa
:1038bc005d2600005c2600005b2600005a260000f6
:1038cc0059260000592600005826000057260000f3
:1038dc0056260000552600005526000054260000f0
:1038ec0053260000522600005126000051260000ed
:1038fc00502600004f2600004e2600004d260000ea
:10390c004d2600004c2600004b2600004a260000e5
:10391c0049260000492600004826000047260000e2
:10392c0046260000452600004526000044260000df
:10393c0043260000422600004126000041260000dc
:10394c00402600003f2600003e2600003d260000d9
:10395c003d2600003c2600003b2600003a260000d5
:10396c0039260000392600003826000037260000d2
:10397c0036260000352600003526000034260000cf
:10398c0033260000322600003126000031260000cc
:10399c00302600002f2600002e2600002d260000c9
:1039ac002d2600002c2600002b2600002a260000c5
:1039bc0029260000292600002826000027260000c2
:1039cc0026260000252600002526000024260000bf
:1039dc0023260000222600002126000021260000bc
:1039ec00202600001f2600001e2600001d260000b9
:1039fc001c2600001c2600001b2600001a260000b6
:103a0c0019260000182600001826000017260000b2
:103a1c0016260000152600001426000014260000af
:103a2c0013260000122600001126000010260000ac
:103a3c00102600000f2600000e2600000d260000a8
:103a4c000c2600000c2600000b2600000a260000a5
:103a5c0009260000082600000826000007260000a2
:103a6c00062600000526000004260000042600009f
:103a7c00032600000226000001260000002600009c
:103a8c0000260000ff250000fe250000fd2500009b
:103a9c00fc250000fc250000fb250000fa25000099
:103aac00f9250000f8250000f7250000f725000097
:103abc00f6250000f5250000f4250000f325000094
:103acc00f3250000f2250000f1250000f025000090
:103adc00ef250000ef250000ee250000ed2500008d
:103aec00ec250000eb250000eb250000ea2500008a
:103afc00e9250000e8250000e7250000e725000087
:103b0c00e6250000e5250000e4250000e325000083
:103b1c00e3250000e2250000e1250000e02500007f
:103b2c00df250000df250000de250000dd2500007c
:103b3c00dc250000db250000da250000da2500007a
:103b4c00d9250000d8250000d7250000d625000077
:103b5c00d6250000d5250000d4250000d325000073
:103b6c00d2250000d2250000d1250000d025000070
:103b7c00cf250000ce250000ce250000cd2500006d
:103b8c00cc250000cb250000ca250000ca2500006a
:103b9c00c9250000c8250000c7250000c625000067
:103bac00c6250000c5250000c4250000c325000063
:103bbc00c2250000c1250000c1250000c025000061
:103bcc00bf250000be250000bd250000bd2500005e
:103bdc00bc250000bb250000ba250000b92500005b
:103bec00b9250000b8250000b7250000b625000057
:103bfc00b5250000b5250000b4250000b325000054
:103c0c00b2250000b1250000b1250000b025000050
:103c1c00af250000ae250000ad250000ac2500004e
:103c2c00ac250000ab250000aa250000a92500004a
:103c3c00a8250000a8250000a7250000a625000047
:103c4c00a5250000a4250000a4250000a325000044
:103c5c00a2250000a1250000a0250000a025000041
:103c6c009f2500009e2500009d2500009c2500003e
:103c7c009b2500009b2500009a250000992500003b
:103c8c009825000097250000972500009625000038
:103c9c009525000094250000932500009325000035
:103cac009225000091250000902500008f25000032
:103cbc008f2500008e2500008d2500008c2500002e
:103ccc008b2500008a2500008a250000892500002c
:103cdc008825000087250000862500008625000029
:103cec008525000084250000832500008225000026
:103cfc008225000081250000802500007f25000022
:103d0c007e2500007e2500007d2500007c2500001e
:103d1c007b2500007a25000079250000792500001c
:103d2c007825000077250000762500007525000019
:103d3c007525000074250000732500007225000015
:103d4c007125000071250000702500006f25000012
:103d5c006e2500006d2500006c2500006c25000010
:103d6c006b2500006a25000069250000682500000d
:103d7c006825000067250000662500006525000009
:103d8c006425000064250000632500006225000006
:103d9c006125000060250000602500005f25000003
:103dac005e2500005d2500005c2500005b25000001
:103dbc005b2500005a2500005925000058250000fd
:103dcc0057250000572500005625000055250000fa
:103ddc0054250000532500005325000052250000f7
:103dec0051250000502500004f2500004e250000f5
:103dfc004e2500004d2500004c2500004b250000f1
:103e0c004a2500004a2500004925000048250000ed
:103e1c0047250000462500004625000045250000ea
:103e2c0044250000432500004225000041250000e8
:103e3c0041250000402500003f2500003e250000e4
:103e4c003d2500003d2500003c2500003b250000e1
:103e5c003a250000392500003925000038250000de
:103e6c0037250000362500003525000034250000dc
:103e7c0034250000332500003225000031250000d8
:103e8c0030250000302500002f2500002e250000d5
:103e9c002d2500002c2500002b2500002b250000d3
:103eac002a250000292500002825000027250000d0
:103ebc0027250000262500002525000024250000cc
:103ecc0023250000232500002225000021250000c9
:103edc00202500001f2500001e2500001e250000c7
:103eec001d2500001c2500001b2500001a250000c4
:103efc001a250000192500001825000017250000c0
:103f0c0016250000152500001525000014250000bd
:103f1c0013250000122500001125000011250000ba
:103f2c00102500000f2500000e2500000d250000b7
:103f3c000d2500000c2500000b2500000a250000b3
:103f4c0009250000082500000825000007250000b1
:103f5c0006250000052500000425000004250000ae
:103f6c0003250000022500000125000000250000ab
:103f7c00ff240000ff240000fe240000fd240000ac
:103f8c00fc240000fb240000fb240000fa240000a9
:103f9c00f9240000f8240000f7240000f6240000a7
:103fac00f6240000f5240000f4240000f3240000a3
:103fbc00f2240000f2240000f1240000f0240000a0
:103fcc00ef240000ee240000ee240000ed2400009d
:103fdc00ec240000eb240000ea240000e92400009b
:103fec00e9240000e8240000e7240000e624000097
:103ffc00e5240000e5240000e4240000e324000094
:10400c00e2240000e1240000e0240000e024000091
:10401c00df240000de240000dd240000dc2400008e
:10402c00dc240000db240000da240000d92400008a
:10403c00d8240000d7240000d7240000d624000088
:10404c00d5240000d4240000d3240000d324000085
:10405c00d2240000d1240000d0240000cf24000082
:10406c00ce240000ce240000cd240000cc2400007f
:10407c00cb240000ca240000ca240000c92400007c
:10408c00c8240000c7240000c6240000c52400007a
:10409c00c5240000c4240000c3240000c224000076
:1040ac00c1240000c1240000c0240000bf24000073
:1040bc00be240000bd240000bc240000bc24000071
:1040cc00bb240000ba240000b9240000b82400006e
:1040dc00b8240000b7240000b6240000b52400006a
:1040ec00b4240000b3240000b3240000b224000068
:1040fc00b1240000b0240000af240000af24000065
:10410c00ae240000ad240000ac240000ab24000061
:10411c00aa240000aa240000a9240000a82400005e
:10412c00a7240000a6240000a6240000a52400005b
:10413c00a4240000a3240000a2240000a124000059
:10414c00a1240000a02400009f2400009e24000055
:10415c009d2400009c2400009c2400009b24000053
:10416c009a24000099240000982400009824000050
:10417c00972400009624000095240000942400004d
:10418c00932400009324000092240000912400004a
:10419c00902400008f2400008f2400008e24000047
:1041ac008d2400008c2400008b2400008a24000045
:1041bc008a24000089240000882400008724000041
:1041cc00862400008624000085240000842400003e
:1041dc00832400008224000081240000812400003c
:1041ec00802400007f2400007e2400007d24000039
:1041fc007c2400007c2400007b2400007a24000036
:10420c007924000078240000782400007724000032
:10421c007624000075240000742400007324000030
:10422c00732400007224000071240000702400002c
:10423c006f2400006e2400006e2400006d2400002a
:10424c006c2400006b2400006a2400006a24000027
:10425c006924000068240000672400006624000024
:10426c006524000065240000642400006324000021
:10427c00622400006124000061240000602400001e
:10428c005f2400005e2400005d2400005c2400001c
:10429c005c2400005b2400005a2400005924000018
:1042ac005824000057240000572400005624000016
:1042bc005524000054240000532400005324000013
:1042cc005224000051240000502400004f24000010
:1042dc004e2400004e2400004d2400004c2400000d
:1042ec004b2400004a24000049240000492400000b
:1042fc004824000047240000462400004524000008
:10430c004524000044240000432400004224000003
:10431c004124000040240000402400003f24000001
:10432c003e2400003d2400003c2400003b240000ff
:10433c003b2400003a2400003924000038240000fb
:10434c0037240000372400003624000035240000f8
:10435c0034240000332400003224000032240000f6
:10436c0031240000302400002f2400002e240000f3
:10437c002d2400002d2400002c2400002b240000f0
:10438c002a240000292400002824000028240000ee
:10439c0027240000262400002524000024240000eb
:1043ac0024240000232400002224000021240000e7
:1043bc00202400001f2400001f2400001e240000e5
:1043cc001d2400001c2400001b2400001a240000e3
:1043dc001a240000192400001824000017240000df
:1043ec0016240000162400001524000014240000dc
:1043fc0013240000122400001124000011240000da
:10440c00102400000f2400000e2400000d240000d6
:10441c000c2400000c2400000b2400000a240000d3
:10442c0009240000082400000724000007240000d1
:10443c0006240000052400000424000003240000ce
:10444c0002240000022400000124000000240000cb
:10445c00ff230000fe230000fe230000fd230000cc
:10446c00fc230000fb230000fa230000f9230000ca
:10447c00f9230000f8230000f7230000f6230000c6
:10448c00f5230000f4230000f4230000f3230000c4
:10449c00f2230000f1230000f0230000ef230000c2
:1044ac00ef230000ee230000ed230000ec230000be
:1044bc00eb230000eb230000ea230000e9230000bb
:1044cc00e8230000e7230000e6230000e6230000b9
:1044dc00e5230000e4230000e3230000e2230000b6
:1044ec00e1230000e1230000e0230000df230000b3
:1044fc00de230000dd230000dc230000dc230000b1
:10450c00db230000da230000d9230000d8230000ad
:10451c00d7230000d7230000d6230000d5230000aa
:10452c00d4230000d3230000d2230000d2230000a8
:10453c00d1230000d0230000cf230000ce230000a5
:10454c00ce230000cd230000cc230000cb230000a1
:10455c00ca230000c9230000c9230000c82300009f
:10456c00c7230000c6230000c5230000c42300009d
:10457c00c4230000c3230000c2230000c123000099
:10458c00c0230000bf230000bf230000be23000097
:10459c00bd230000bc230000bb230000ba23000095
:1045ac00ba230000b9230000b8230000b723000091
:1045bc00b6230000b5230000b5230000b42300008f
:1045cc00b3230000b2230000b1230000b02300008d
:1045dc00b0230000af230000ae230000ad23000089
:1045ec00ac230000ac230000ab230000aa23000086
:1045fc00a9230000a8230000a7230000a723000084
:10460c00a6230000a5230000a4230000a323000080
:10461c00a2230000a2230000a1230000a02300007d
:10462c009f2300009e2300009d2300009d2300007b
:10463c009c2300009b2300009a2300009923000078
:10464c009823000098230000972300009623000075
:10465c009523000094230000932300009323000073
:10466c009223000091230000902300008f23000070
:10467c008e2300008e2300008d2300008c2300006d
:10468c008b2300008a23000089230000892300006b
:10469c008823000087230000862300008523000068
:1046ac008423000084230000832300008223000065
:1046bc0081230000802300007f2300007f23000063
:1046cc007e2300007d2300007c2300007b23000060
:1046dc007a2300007a23000079230000782300005d
:1046ec00772300007623000075230000752300005b
:1046fc007423000073230000722300007123000058
:10470c0070230000702300006f2300006e23000054
:10471c006d2300006c2300006b2300006b23000052
:10472c006a2300006923000068230000672300004f
:10473c00662300006623000065230000642300004c
:10474c00632300006223000061230000612300004a
:10475c00602300005f2300005e2300005d23000047
:10476c005c2300005c2300005b2300005a23000044
:10477c005923000058230000572300005723000042
:10478c00562300005523000054230000532300003f
:10479c00522300005223000051230000502300003c
:1047ac004f2300004e2300004d2300004d2300003a
:1047bc004c2300004b2300004a2300004923000037
:1047cc004823000048230000472300004623000034
:1047dc004523000044230000432300004323000032
:1047ec004223000041230000402300003f2300002f
:1047fc003e2300003e2300003d2300003c2300002c
:10480c003b2300003a230000392300003923000029
:10481c003823000037230000362300003523000026
:10482c003423000034230000332300003223000023
:10483c0031230000302300002f2300002f23000021
:10484c002e2300002d2300002c2300002b2300001e
:10485c002a2300002a23000029230000282300001b
:10486c002723000026230000252300002523000019
:10487c002423000023230000222300002123000016
:10488c0020230000202300001f2300001e23000013
:10489c001d2300001c2300001b2300001b23000011
:1048ac001a2300001923000018230000172300000e
:1048bc00162300001623000015230000142300000b
:1048cc00132300001223000011230000102300000a
:1048dc00102300000f2300000e2300000d23000006
:1048ec000c2300000b2300000b2300000a23000004
:1048fc000923000008230000072300000623000002
:10490c0006230000052300000423000003230000fd
:10491c0002230000012300000123000000230000fb
:10492c00ff220000fe220000fd220000fc220000fd
:10493c00fc220000fb220000fa220000f9220000f9
:10494c00f8220000f7220000f7220000f6220000f7
:10495c00f5220000f4220000f3220000f2220000f5
:10496c00f2220000f1220000f0220000ef220000f1
:10497c00ee220000ed220000ec220000ec220000f0
:10498c00eb220000ea220000e9220000e8220000ed
:10499c00e7220000e7220000e6220000e5220000ea
:1049ac00e4220000e3220000e2220000e2220000e8
:1049bc00e1220000e0220000df220000de220000e5
:1049cc00dd220000dd220000dc220000db220000e2
:1049dc00da220000d9220000d8220000d8220000e0
:1049ec00d7220000d6220000d5220000d4220000dd
:1049fc00d3220000d2220000d2220000d1220000db
:104a0c00d0220000cf220000ce220000cd220000d8
:104a1c00cd220000cc220000cb220000ca220000d4
:104a2c00c9220000c8220000c8220000c7220000d2
:104a3c00c6220000c5220000c4220000c3220000d0
:104a4c00c3220000c2220000c1220000c0220000cc
:104a5c00bf220000be220000be220000bd220000ca
:104a6c00bc220000bb220000ba220000b9220000c8
:104a7c00b8220000b8220000b7220000b6220000c5
:104a8c00b5220000b4220000b3220000b3220000c3
:104a9c00b2220000b1220000b0220000af220000c0
:104aac00ae220000ae220000ad220000ac220000bd
:104abc00ab220000aa220000a9220000a8220000bc
:104acc00a8220000a7220000a6220000a5220000b8
:104adc00a4220000a3220000a3220000a2220000b6
:104aec00a1220000a02200009f2200009e220000b4
:104afc009e2200009d2200009c2200009b220000b0
:104b0c009a220000992200009922000098220000ad
:104b1c0097220000962200009522000094220000ab
:104b2c0093220000932200009222000091220000a8
:104b3c00902200008f2200008e2200008e220000a6
:104b4c008d2200008c2200008b2200008a220000a3
:104b5c0089220000892200008822000087220000a0
:104b6c00862200008522000084220000832200009f
:104b7c00832200008222000081220000802200009b
:104b8c007f2200007e2200007e2200007d22000099
:104b9c007c2200007b2200007a2200007922000097
:104bac007922000078220000772200007622000093
:104bbc007522000074220000732200007322000092
:104bcc007222000071220000702200006f2200008f
:104bdc006e2200006e2200006d2200006c2200008c
:104bec006b2200006a22000069220000692200008a
:104bfc006822000067220000662200006522000087
:104c0c006422000063220000632200006222000084
:104c1c0061220000602200005f2200005e22000082
:104c2c005e2200005d2200005c2200005b2200007e
:104c3c005a2200005922000058220000582200007d
:104c4c00572200005622000055220000542200007a
:104c5c005322000053220000522200005122000077
:104c6c00502200004f2200004e2200004e22000075
:104c7c004d2200004c2200004b2200004a22000072
:104c8c004922000048220000482200004722000070
:104c9c00462200004522000044220000432200006e
:104cac00432200004222000041220000402200006a
:104cbc003f2200003e2200003d2200003d22000069
:104ccc003c2200003b2200003a2200003922000066
:104cdc003822000038220000372200003622000063
:104cec003522000034220000332200003222000062
:104cfc003222000031220000302200002f2200005e
:104d0c002e2200002d2200002d2200002c2200005b
:104d1c002b2200002a220000292200002822000059
:104d2c002722000027220000262200002522000056
:104d3c002422000023220000222200002222000054
:104d4c0021220000202200001f2200001e22000051
:104d5c001d2200001c2200001c2200001b2200004f
:104d6c001a2200001922000018220000172200004d
:104d7c001722000016220000152200001422000049
:104d8c001322000012220000112200001122000048
:104d9c00102200000f2200000e2200000d22000045
:104dac000c2200000c2200000b2200000a22000042
:104dbc000922000008220000072200000622000041
:104dcc00062200000522000004220000032200003d
:104ddc00022200000122000001220000002200003b
:104dec00ff210000fe210000fd210000fc2100003d
:104dfc00fb210000fb210000fa210000f92100003a
:104e0c00f8210000f7210000f6210000f621000037
:104e1c00f5210000f4210000f3210000f221000034
:104e2c00f1210000f0210000f0210000ef21000032
:104e3c00ee210000ed210000ec210000eb21000030
:104e4c00eb210000ea210000e9210000e82100002c
:104e5c00e7210000e6210000e5210000e52100002b
:104e6c00e4210000e3210000e2210000e121000028
:104e7c00e0210000df210000df210000de21000026
:104e8c00dd210000dc210000db210000da21000024
:104e9c00da210000d9210000d8210000d721000020
:104eac00d6210000d5210000d4210000d42100001f
:104ebc00d3210000d2210000d1210000d02100001c
:104ecc00cf210000cf210000ce210000cd21000019
:104edc00cc210000cb210000ca210000c921000018
:104eec00c9210000c8210000c7210000c621000014
:104efc00c5210000c4210000c3210000c321000013
:104f0c00c2210000c1210000c0210000bf2100000f
:104f1c00be210000be210000bd210000bc2100000c
:104f2c00bb210000ba210000b9210000b82100000b
:104f3c00b8210000b7210000b6210000b521000007
:104f4c00b4210000b3210000b2210000b221000006
:104f5c00b1210000b0210000af210000ae21000003
:104f6c00ad210000ad210000ac210000ab21000000
:104f7c00aa210000a9210000a8210000a7210000ff
:104f8c00a7210000a6210000a5210000a4210000fb
:104f9c00a3210000a2210000a1210000a1210000fa
:104fac00a02100009f2100009e2100009d210000f7
:104fbc009c2100009c2100009b2100009a210000f4
:104fcc0099210000982100009721000096210000f3
:104fdc0096210000952100009421000093210000ef
:104fec0092210000912100009021000090210000ee
:104ffc008f2100008e2100008d2100008c210000eb
:10500c008b2100008a2100008a21000089210000e8
:10501c0088210000872100008621000085210000e6
:10502c0085210000842100008321000082210000e2
:10503c0081210000802100007f2100007f210000e1
:10504c007e2100007d2100007c2100007b210000de
:10505c007a210000792100007921000078210000dc
:10506c0077210000762100007521000074210000da
:10507c0073210000732100007221000071210000d7
:10508c00702100006f2100006e2100006e210000d5
:10509c006d2100006c2100006b2100006a210000d2
:1050ac0069210000682100006821000067210000d0
:1050bc0066210000652100006421000063210000ce
:1050cc0062210000622100006121000060210000cb
:1050dc005f2100005e2100005d2100005c210000ca
:1050ec005c2100005b2100005a21000059210000c6
:1050fc0058210000572100005621000056210000c5
:10510c0055210000542100005321000052210000c1
:10511c005121000050210000502100004f210000bf
:10512c004e2100004d2100004c2100004b210000bd
:10513c004b2100004a2100004921000048210000b9
:10514c0047210000462100004521000045210000b8
:10515c0044210000432100004221000041210000b5
:10516c00402100003f2100003f2100003e210000b3
:10517c003d2100003c2100003b2100003a210000b1
:10518c0039210000392100003821000037210000ae
:10519c0036210000352100003421000033210000ad
:1051ac0033210000322100003121000030210000a9
:1051bc002f2100002e2100002d2100002d210000a8
:1051cc002c2100002b2100002a21000029210000a5
:1051dc0028210000272100002721000026210000a3
:1051ec0025210000242100002321000022210000a1
:1051fc002121000021210000202100001f2100009e
:10520c001e2100001d2100001c2100001b2100009c
:10521c001b2100001a210000192100001821000098
:10522c001721000016210000162100001521000096
:10523c001421000013210000122100001121000094
:10524c0010210000102100000f2100000e21000091
:10525c000d2100000c2100000b2100000a21000090
:10526c000a2100000921000008210000072100008c
:10527c00062100000521000004210000042100008b
:10528c000321000002210000012100000021000088
:10529c00ff200000fe200000fe200000fd2000008a
:1052ac00fc200000fb200000fa200000f920000088
:1052bc00f8200000f8200000f7200000f620000085
:1052cc00f5200000f4200000f3200000f220000084
:1052dc00f2200000f1200000f0200000ef20000080
:1052ec00ee200000ed200000ec200000ec2000007f
:1052fc00eb200000ea200000e9200000e82000007c
:10530c00e7200000e6200000e6200000e520000079
:10531c00e4200000e3200000e2200000e120000077
:10532c00e0200000e0200000df200000de20000074
:10533c00dd200000dc200000db200000da20000073
:10534c00da200000d9200000d8200000d72000006f
:10535c00d6200000d5200000d4200000d32000006f
:10536c00d3200000d2200000d1200000d02000006b
:10537c00cf200000ce200000cd200000cd2000006a
:10538c00cc200000cb200000ca200000c920000067
:10539c00c8200000c7200000c7200000c620000065
:1053ac00c5200000c4200000c3200000c220000063
:1053bc00c1200000c1200000c0200000bf20000060
:1053cc00be200000bd200000bc200000bb2000005f
:1053dc00bb200000ba200000b9200000b82000005b
:1053ec00b7200000b6200000b5200000b52000005a
:1053fc00b4200000b3200000b2200000b120000057
:10540c00b0200000af200000af200000ae20000054
:10541c00ad200000ac200000ab200000aa20000052
:10542c00a9200000a9200000a8200000a72000004f
:10543c00a6200000a5200000a4200000a32000004e
:10544c00a3200000a2200000a1200000a02000004a
:10545c009f2000009e2000009d2000009c2000004a
:10546c009c2000009b2000009a2000009920000046
:10547c009820000097200000962000009620000045
:10548c009520000094200000932000009220000042
:10549c009120000090200000902000008f20000040
:1054ac008e2000008d2000008c2000008b2000003e
:1054bc008a2000008a20000089200000882000003b
:1054cc00872000008620000085200000842000003a
:1054dc008420000083200000822000008120000036
:1054ec00802000007f2000007e2000007d20000036
:1054fc007d2000007c2000007b2000007a20000032
:10550c007920000078200000772000007720000030
:10551c00762000007520000074200000732000002d
:10552c00722000007120000071200000702000002b
:10553c006f2000006e2000006d2000006c20000029
:10554c006b2000006b2000006a2000006920000026
:10555c006820000067200000662000006520000025
:10556c006420000064200000632000006220000022
:10557c0061200000602000005f2000005e20000021
:10558c005e2000005d2000005c2000005b2000001d
:10559c005a2000005920000058200000582000001c
:1055ac005720000056200000552000005420000019
:1055bc005320000052200000522000005120000017
:1055cc00502000004f2000004e2000004d20000015
:1055dc004c2000004b2000004b2000004a20000013
:1055ec004920000048200000472000004620000011
:1055fc00452000004520000044200000432000000e
:10560c004220000041200000402000003f2000000c
:10561c003f2000003e2000003d2000003c20000008
:10562c003b2000003a200000392000003820000008
:10563c003820000037200000362000003520000004
:10564c003420000033200000322000003220000003
:10565c0031200000302000002f2000002e20000000
:10566c002d2000002c2000002c2000002b200000fe
:10567c002a200000292000002820000027200000fc
:10568c0026200000252000002520000024200000fa
:10569c0023200000222000002120000020200000f8
:1056ac001f2000001f2000001e2000001d200000f5
:1056bc001c2000001b2000001a20000019200000f4
:1056cc0018200000182000001720000016200000f1
:1056dc0015200000142000001320000012200000f0
:1056ec001220000011200000102000000f200000ec
:1056fc000e2000000d2000000c2000000c200000eb
:10570c000b2000000a2000000920000008200000e7
:10571c0007200000062000000520000005200000e6
:10572c0004200000032000000220000001200000e3
:10573c0000200000ff1f0000ff1f0000fe1f0000e4
:10574c00fd1f0000fc1f0000fb1f0000fa1f0000e3
:10575c00f91f0000f81f0000f81f0000f71f0000e1
:10576c00f61f0000f51f0000f41f0000f31f0000df
:10577c00f21f0000f21f0000f11f0000f01f0000dc
:10578c00ef1f0000ee1f0000ed1f0000ec1f0000db
:10579c00eb1f0000eb1f0000ea1f0000e91f0000d8
:1057ac00e81f0000e71f0000e61f0000e51f0000d7
:1057bc00e51f0000e41f0000e31f0000e21f0000d3
:1057cc00e11f0000e01f0000df1f0000de1f0000d3
:1057dc00de1f0000dd1f0000dc1f0000db1f0000cf
:1057ec00da1f0000d91f0000d81f0000d81f0000ce
:1057fc00d71f0000d61f0000d51f0000d41f0000cb
:10580c00d31f0000d21f0000d11f0000d11f0000c9
:10581c00d01f0000cf1f0000ce1f0000cd1f0000c6
:10582c00cc1f0000cb1f0000ca1f0000ca1f0000c5
:10583c00c91f0000c81f0000c71f0000c61f0000c2
:10584c00c51f0000c41f0000c41f0000c31f0000c0
:10585c00c21f0000c11f0000c01f0000bf1f0000be
:10586c00be1f0000bd1f0000bd1f0000bc1f0000bc
:10587c00bb1f0000ba1f0000b91f0000b81f0000ba
:10588c00b71f0000b71f0000b61f0000b51f0000b7
:10589c00b41f0000b31f0000b21f0000b11f0000b6
:1058ac00b01f0000b01f0000af1f0000ae1f0000b3
:1058bc00ad1f0000ac1f0000ab1f0000aa1f0000b2
:1058cc00a91f0000a91f0000a81f0000a71f0000af
:1058dc00a61f0000a51f0000a41f0000a31f0000ae
:1058ec00a31f0000a21f0000a11f0000a01f0000aa
:1058fc009f1f00009e1f00009d1f00009c1f0000aa
:10590c009c1f00009b1f00009a1f0000991f0000a5
:10591c00981f0000971f0000961f0000951f0000a5
:10592c00951f0000941f0000931f0000921f0000a1
:10593c00911f0000901f00008f1f00008f1f0000a0
:10594c008e1f00008d1f00008c1f00008b1f00009d
:10595c008a1f0000891f0000881f0000881f00009c
:10596c00871f0000861f0000851f0000841f000099
:10597c00831f0000821f0000811f0000811f000098
:10598c00801f00007f1f00007e1f00007d1f000095
:10599c007c1f00007b1f00007b1f00007a1f000093
:1059ac00791f0000781f0000771f0000761f000091
:1059bc00751f0000741f0000741f0000731f00008f
:1059cc00721f0000711f0000701f00006f1f00008d
:1059dc006e1f00006d1f00006d1f00006c1f00008b
:1059ec006b1f00006a1f0000691f0000681f000089
:1059fc00671f0000661f0000661f0000651f000087
:105a0c00641f0000631f0000621f0000611f000084
:105a1c00601f0000601f00005f1f00005e1f000081
:105a2c005d1f00005c1f00005b1f00005a1f000080
:105a3c00591f0000591f0000581f0000571f00007d
:105a4c00561f0000551f0000541f0000531f00007c
:105a5c00521f0000521f0000511f0000501f000079
:105a6c004f1f00004e1f00004d1f00004c1f000078
